:020000040800F2
:10000000B013002045010008EF1700088F16000804
:10001000ED170008D90600083F1B0008000000008B
:10002000000000000000000000000000F3170008BE
:10003000DB06000800000000F1170008F5170008B3
:100040005F0100085F0100085F0100085F01000810
:100050005F0100085F0100085F0100085F01000800
:10006000650700085F0100085F0100085F010008E4
:100070005F0100085F0100085F0100085F010008E0
:100080005F0100085F0100085F0100085F010008D0
:100090005F0100085F0100085F0100085F010008C0
:1000A0005F010008991800085F0100088D1800081A
:1000B0005F0100085F0100085F0100085F010008A0
:1000C0005F0100085F0100085F0100085F01000890
:1000D0005F0100085F0100085F0100085F01000880
:1000E0005D0700085F0100085F0100085F0100086C
:1000F0005F0100085F0100085F0100085F01000860
:100100005F0100085F0100085F0100085F0100084F
:100110005F0100085F0100085F0100085F0100083F
:100120005F0100085F0100085F0100085F0100082F
:10013000DFF80CD000F040FA00480047892400089E
:10014000B01300200648804706480047FEE7FEE758
:10015000FEE7FEE7FEE7FEE7FEE7FEE7FEE7FEE777
:100160004518000831010008202A04DB203A21FA52
:1001700002F00021704721FA02F3D040C2F12002C0
:100180009140084319467047D2B201E000F8012BB4
:10019000491EFBD270470022F6E710B513460A4607
:1001A00004461946FFF7F0FF204610BD421C10F828
:1001B000011B0029FBD1801A704730B50B46014660
:1001C00000202022012409E021FA02F59D4205D3F6
:1001D00003FA02F5491B04FA02F52844151EA2F1A0
:1001E0000102F1DC30BD2DE9F05F054600209246AA
:1001F0009B4688460646814640241BE028464146E9
:1002000047462246FFF7B0FF53465A46C01A91416F
:1002100010D311461846224600F0E0F92D1A67EB7C
:1002200001084F4622460120002100F0D7F917EBC4
:1002300000094E41201EA4F10104DFDC484631468E
:100240002A464346BDE8F09F2DE9FE4F804681EAED
:100250000300C00F0C46009021F0004123F0004540
:10026000B8EB0200A94105D24046214690461C4603
:100270000B46024623F00040104347D0270DC7F33A
:100280000A00C3F30A510290401A019040286BDA29
:10029000C3F3130040F4801B0098924620B1002362
:1002A000D2EB030A63EB0B0B01985946C0F14002F5
:1002B000504600F093F906460D4650465946019ABD
:1002C00000F09BF910EB08006141002487EA11520D
:1002D00084EAE7731A4340D0009A62B3019A012A74
:1002E0004FEA075215DC001B61EB02014FF00042A0
:1002F00002EA0752CDE90042001C41F58011324666
:100300002B4600F09BF903B0BDE8F08F4046214634
:10031000F9E7001B61EB0201001C41F58013001896
:100320005B412018A2F5001747EB030140EAD570A6
:10033000B6196D4111E06D084FEA360645EAC07501
:100340004FEA0752001B61EB0201001C41F58011CE
:1003500049084FEA30000019514132462B4603B09C
:10036000BDE8F04F00F05BB9009801224000002387
:10037000D0EB020263EBE073009821464FEAE07491
:10038000B8EB000061EB0401E9E783F000435BE7B1
:1003900081F0004158E72DE9FE4F81EA030404F0A3
:1003A000004421F0004100944FF0000B23F0004383
:1003B00050EA01045ED052EA03045BD0C3F30A544E
:1003C000C1F30A552C44A4F2F3340194A0FB025467
:1003D000C1F3130141F48011C3F3130343F48013F9
:1003E00001FB024400FB034E840A970A44EA81544D
:1003F00047EA8357A4FB076802958D0A05FB07852A
:100400004FEA932C04FB0C542705029D4FEA065833
:1004100047EA1637B5EB08056EEB070C870E920E10
:1004200047EA811742EA8312A7FB0201B6EB0B01F0
:1004300064EB00042B0D43EA0C335E1844EB1C50B4
:10044000DA465146E7FB0201C5F313044FEA0B33CA
:1004500043EA14534FEA0432019C43EA0603A4F131
:100460000C040294009CCDE900B400F0E7F803B05E
:10047000BDE8F08F00200146F9E72DE9F04D81EA53
:10048000030404F0004B21F0004514464FF0000A2D
:1004900023F0004150EA050220D054EA01021DD0A9
:1004A000C5F30A570246C5F31303C1F31300C1F3A2
:1004B0000A5640F4801543F48013A7EB0608101B7E
:1004C000D64608F2FD3873EB050002D308F10108A7
:1004D00001E092185B41B8F1000F03DA00200146F9
:1004E000BDE8F08D00204FF48011064684460EE0F2
:1004F000171B73EB050705D3121B63EB05030643BC
:100500004CEA010C49084FEA300092185B4150EA6E
:100510000107EDD152EA030012D082EA040083EA17
:100520000501084305D0101BAB4106D20122002370
:1005300006E000224FF0004302E06FF0010253108A
:100540001AEB06004CEB085110EB0A0041EB0B01D3
:10055000BDE8F04D00F063B8C1F30A52C1F31301D6
:1005600040F2FF3341F480119A4202DA0020014642
:10057000704740F233439A42A2F2334202DC5242C5
:10058000FFF7F2BD00F02AB830B5041E71F1000487
:1005900004DB4FF00044404264EB0101141E73F190
:1005A000000405DB1C464FF00043524263EB04039A
:1005B000994208BF904230BD064C074D06E0E06806
:1005C00040F0010394E8070098471034AC42F6D39A
:1005D000FFF7B2FDA4260008C4260008202A04DB89
:1005E000203A00FA02F1002070479140C2F1200346
:1005F00020FA03F3194390407047202A06DBCB17FB
:10060000203A41FA02F043EAE07306E041FA02F3CD
:10061000D040C2F12002914008431946704710B5FE
:10062000141E73F1000408DA401C41F10001921815
:100630005B411A4301D120F0010010BD2DE9F04DBE
:1006400092469B4611B1B1FA81F202E0B0FA80F213
:1006500020329046FFF7C2FF04460F4640EA0A00E8
:1006600041EA0B0153465A46084313D0114653EA58
:10067000010019D0C8F140025046FFF775FD05464C
:100680000E46504659464246FFF7A8FF084305D09C
:10069000012004E020463946BDE8F08D00200543E6
:1006A00046EAE0762C4337430A986305E40AA0EB58
:1006B00008000022FD0A44EA47540A3002D500200F
:1006C0000146E9E7010510196941DDE9084500190E
:1006D0006941BDE8F04DA2E7FEE7704770B54FF401
:1006E000FA75B0FBF5F1CCB2B0FBF5F105FB1106E4
:1006F00004E0284600F00CF8641EE4B2002CF8D1A7
:10070000002E04D03046BDE8704000F001B870BD46
:10071000002810D00849498848434FF0E02148613B
:100720000020886101220A610A69D30701D0D2033F
:10073000FAD5086188617047000000204FF0E02082
:10074000016921F00401016103480921017042F2AD
:100750002831418070470000000000204FF4805095
:1007600000F00EB8042000F00BB8B0F5805F03D0A5
:10077000042803D101F05EBF01F026BF70470000DE
:10078000044910B50A68024202D00860FFF7EDFF85
:1007900010BD0000140401402DE9F84FDFF8C891A6
:1007A000002409F1040A0AF1040B23460F270BF178
:1007B000040ED1E00125A54006EA0502AA4276D141
:1007C000DFF8A8C14E68A6EB0C0866452BD00DDCFF
:1007D000032E34D005DC36B3012E19D0022E2FD1D2
:1007E0001BE0112E16D0122E2AD119E0B8F5881F61
:1007F00019D006DCB8F5803F15D0B8F5801F1FD1A1
:1008000011E0B8F5001F0ED0B8F5041F18D10AE0AA
:10081000CB6815E0CB681B1D12E0CB6808330FE0F6
:10082000CB680C330CE08B682BB1012B4FF0080325
:1008300003D0456104E0042302E0056100E00023E9
:10084000FF2A01D8064601E000F104064FEA8405BC
:1008500001D9A5F12005D6F8008007FA05FC28EAA1
:100860000C0803FA05F548EA0508C6F800804D684B
:10087000ED0070D53E4DAE6946F00106AE61AD6942
:1008800024F0030605F0010500953A4D06EB050C32
:10089000DCF80850A607360F07FA06F825EA08051F
:1008A000DFF8D480404503D14FF0000825E052E046
:1008B000DFF8C880404502D14FF001081DE0DFF8A5
:1008C000C080404502D14FF0020816E0DFF8B48046
:1008D000404502D14FF003080FE0DFF8AC804045FF
:1008E00002D14FF0040808E0DFF8A080404502D1B3
:1008F0004FF0050801E04FF0060808FA06F848EA4C
:100900000508CCF808804D68D9F80060ED034D4625
:1009100001D5164300E096432E604D68DAF800607A
:10092000AD03554601D5164300E096432E604D6851
:10093000DBF80060ED025D4601D5164300E096430A
:100940002E604D68DEF80060AD02754601D5164395
:1009500000E096432E60641C0A681646E2407FF46D
:1009600029AFBDE8F88F000000040140000011101D
:10097000001002400000014000080140000C01404E
:10098000001001400014014000180140001C01400B
:100990008068084000D0012070470AB101617047AB
:1009A0000904FBE701488068704700000C00002044
:1009B0000248816802781144816070470C00002071
:1009C000074810B5016841F010010160032000F0F4
:1009D00075F8002000F006F800F024F8002010BDA3
:1009E0000020024070B50D4D04464FF47A7128780E
:1009F000B1FBF0F00A490968B1FBF0F000F0ECFA45
:100A000048B9102C07D200222146501E00F036F8BB
:100A100000206C6070BD012070BD00000C00002043
:100A2000180000200C4808B5816941F0010181617E
:100A3000816901F001010091C16941F08051C161FA
:100A4000C06900F0805000900448416821F0E061E6
:100A500041F00071416008BD0010024000000140FB
:100A6000002809DB00F01F020121914040098000AD
:100A700000F1E020C0F8001170470000F0B40E4B08
:100A80001B680C46C3F30223C3F10705042D00D9EC
:100A90000425191D072901D2002300E0DB1E0126D1
:100AA00006FA05F1491E214099409E40761E1640E7
:100AB0003143F0BC01F06AB80CED00E0064900F0EB
:100AC000070208684FF6FF03184040EA0220034A75
:100AD00010430860704700000CED00E00000FA05CC
:100AE0002DE9F0470F46050061D0434E306800F015
:100AF0000700B84209D2306820F007003843306060
:100B0000306800F00700B84251D128683B4C81079B
:100B100012D5400703D5606840F4E0606060287833
:100B2000000703D5606840F4605060606068A968A1
:100B300020F0F000084360602878C00728D068687B
:100B4000012810D02168022810D0890700292EDA48
:100B5000616821F0030101436160FFF723FF8046D4
:100B600041F288390DE021688903EFE78901EDE75B
:100B7000FFF718FFA0EB0801494502D90320BDE8A3
:100B8000F0876068696800F00C00B0EB810FEFD16E
:100B9000306800F00700B8420BD9306820F0070039
:100BA00038433060306800F00700B84201D00120BF
:100BB000E5E72878400705D56068E96820F4E0603B
:100BC000084360602878000706D56068296920F42A
:100BD000605040EAC100606000F038F86168084A7F
:100BE000C1F30311515CC84006490860064800681B
:100BF000FFF7F8FE0020C2E700200240001002408C
:100C00008C26000818000020100000200448054928
:100C100000684968044AC1F30221515CC84070472A
:100C200018000020001002409C26000804480549D6
:100C300000684968044AC1F3C221515CC84070474A
:100C400018000020001002409C26000812A185B068
:100C50000FC98DE80F0014A0144A00680490516871
:100C6000134801F00C03042B10D0082B0ED1C1F354
:100C70008343C9031DF803000AD5516804AAC1F3D0
:100C80004041515C0A4A5043B0FBF1F005B0704757
:100C900008494843FAE7000002030405060708096B
:100CA0000A0B0C0D0E0F1010010200000010024084
:100CB00000127A0000093D002DE9F84F040070D0C1
:100CC0002078C04DC00749D06868C0F38100012872
:100CD00007D06868C0F38100022809D16868C003A2
:100CE00006D52868800339D560680028E7D035E04C
:100CF0006068B0F5803F0BD010B1B0F5A02F11D0D7
:100D0000286820F480302860286820F4802002E0E1
:100D1000286840F480302860606890B1FFF742FE98
:100D200006460AE0286840F480202860F0E700BF0B
:100D3000FFF738FE801B642873D828688003F7D536
:100D40000CE0FFF72FFE064605E000BFFFF72AFE86
:100D5000801B6428F0D828688003F7D420789A4E46
:100D600080074FF001094FF0000839D5686810F08E
:100D70000C0F07D06868C0F38100022809D16868A9
:100D8000C00306D42868800714D52069012808D13B
:100D900010E02069B0B1C6F80090FFF703FE0746E7
:100DA00005E00AE1FFF7FEFDC01B0228C4D8286851
:100DB0008007F7D52868616920F0F80040EAC10093
:100DC00028600DE0C6F80080FFF7ECFD074604E060
:100DD000FFF7E8FDC01B022823D828688007F7D456
:100DE000207800072CD57948A169D9B1C0F80090C6
:100DF000FFF7D8FD074604E0FFF7D4FDC01B02282B
:100E00000FD8686A8007F7D571484FF4FA51006827
:100E1000B0FBF1F0009000BF0098411E0091FAD2A3
:100E20000EE080E0C0F80080FFF7BCFD074604E05C
:100E3000FFF7B8FDC01B022875D8686A8007F7D491
:100E40002078400760D5E8690027C00008D4E86929
:100E500040F08050E861E869012700F08050009080
:100E60005C480168C90513D40168834641F4807168
:100E70000160FFF797FD824606E000BFFFF792FD95
:100E8000A0EB0A0064284ED8DBF80000C005F5D5B9
:100E9000E06801280AD008B1052813D0286A20F09C
:100EA00001002862286A20F0040002E0286A40F06D
:100EB00001002862E06841F2883B98B1FFF772FDBB
:100EC00082460BE0286A40F004002862EEE700BF8B
:100ED000FFF768FDA0EB0A0159455AD8286A800738
:100EE000F6D50CE0FFF75EFD824605E0FFF75AFD00
:100EF000A0EB0A0159454CD8286A8007F6D41FB1E7
:100F0000E86920F08050E861E06988B36968C1F35E
:100F10008101022944D00228C6F8608004D0FFF77E
:100F200041FD044638E034E0FFF73CFD074604E0AD
:100F3000FFF738FDC01B02282BD828688001F7D4A2
:100F4000206AB0F5803F05D16868A16820F40030C0
:100F500008436860D4E908010843696821F4741102
:100F600008436860C6F86090FFF71CFD044606E081
:100F700025E000BFFFF716FD001B022809D82868EE
:100F80008001F7D51BE000BFFFF70CFD001B022816
:100F900002D90320BDE8F88F28688001F4D40EE060
:100FA0000128F7D06868226A00F48031914204D1A8
:100FB000616A00F47010884201D00120EAE7002045
:100FC000E8E7000000100240000042428004424274
:100FD000180000200070004010B5401EB0F1807F66
:100FE00001D3012010BD4FF0E02460610F21601794
:100FF00000F0CCFD0020A06107202061002010BD82
:101000007047704770B590F83C20012A19D0012430
:1010100000F83C4F0222427050F83C3C5A689D68F0
:1010200022F070060A684968324325F0800529439A
:101030005A6050F83C2C91604470002101700846C1
:1010400070BD022070BD00002DE9F0414FF4006139
:101050002048FFF79DFC01001F4E2048204D214CE9
:101060004FF0000841F2F8174FF001024FF08001F5
:101070001FD0FFF792FC0C21284600F02BFA80B21B
:10108000A08029680A6A22F400520A6229680A6A62
:1010900042F400520A62A0F5C871B94207D8E1884B
:1010A00026F81100491CE1802968C1F82480BDE8B8
:1010B000F081FFF772FC0C21094800F00BFA80B2B6
:1010C000608029680A6A22F400520A6229680A6A62
:1010D000E0E70000000801401C0000200010014073
:1010E00074020020040000202DE9F041044690F82D
:1010F0003C000D4601283BD0012684F83C600220CC
:1011000084F83D009AB3042A44D02068082A53D0BA
:10111000D5E90027E968036A23F480530362D0F815
:101120001CC0036A2CF4407C4CEA07274FF6FF7C76
:1011300027F470470CEA01313943770323F4005355
:1011400007EA02321A43C16102622068C16921F4D0
:101150004061C1612068C169AA6841EA0221C16198
:1011600084F83D60002084F83C00BDE8F08101E097
:101170000220FAE7D5E90012EB68206800F0E6FBF0
:101180002068816921F00C01816120688169AA6869
:1011900011430FE0D5E90012EB68206800F00CFC69
:1011A0002068816921F44061816120688169AA68B1
:1011B00041EA02218161D3E7D5E9002C2F7B016A46
:1011C00021F480710162C169036A21F0030141EADF
:1011D0000C0121F0F00C39074FF400774CEA116153
:1011E00023F4007307EA02221A43C16102622068F5
:1011F000C16921F00C01C1612068C169AA6811436D
:10120000ADE710B5040003D094F83D0010B107E03D
:10121000012010BD002084F83C00204600F00CF8AE
:10122000022084F83D00211D206800F03BFB0120D6
:1012300084F83D00002010BD00B585B0002100916C
:1012400001910291039100681749884229D11748FA
:10125000816941F400618161816901F40061049157
:10126000816941F0040181618069694600F00400F0
:1012700004904FF400600090012002900C48FFF7AA
:101280008BFA002211461920FFF7F8FB1920FFF70F
:10129000E7FB002211461B20FFF7F0FB1B20FFF7A6
:1012A000DFFB05B000BD0000002C01400010024033
:1012B0000008014010B50268044631B1042908D085
:1012C00008291AD00C2908D11BE0D06840F0020090
:1012D00002E0D06840F00400D0600122206800F0F5
:1012E00027FB2068816801F00701062903D0016807
:1012F00041F001010160002010BDD06840F00800FD
:10130000EAE7D06840F01000E6E710B5026804464E
:1013100031B1042908D008291ED00C2908D11FE0BA
:10132000D06820F0020002E0D06820F00400D06015
:101330000022206800F0FCFA2068016A41F21112D4
:10134000114207D1016A9210114203D1016821F0C4
:1013500001010160002010BDD06820F00800E6E720
:10136000D06820F01000E2E770B50446006801691B
:101370004FF00005C943890715D4C168C9438907DF
:1013800011D4E91E0161012020772068806980075F
:10139000204602D0FFF758FE04E000F098F82046FF
:1013A00000F096F8257720680169C943490717D4EA
:1013B000C168C943490713D46FF0040101610220D9
:1013C00020772068806910F4407F204602D0FFF724
:1013D0003BFE04E000F07BF8204600F079F825772A
:1013E00020680169C943090716D4C168C9430907C0
:1013F00012D46FF008010161042020772068C069D1
:101400008007204602D0FFF71FFE04E000F05FF8DF
:10141000204600F05DF8257720680169C943C906B8
:1014200017D4C168C943C90613D46FF01001016114
:10143000082020772068C06910F4407F204602D041
:10144000FFF702FE04E000F042F8204600F040F80A
:10145000257720680169C943C90708D1C168C94314
:10146000C90704D1891E0161204600F032F82068C6
:101470000169C943090609D4C168C943090605D4ED
:101480006FF0800101612046FFF7BAFD2068016915
:10149000C943490609D4C168C943490605D46FF058
:1014A00040010161204600F02AF820680169C94323
:1014B00089060BD4C168C943890607D46FF020019F
:1014C00001612046BDE87040FFF79BBD70BD7047CD
:1014D000704770470246002041B1042909D008290D
:1014E0000AD00C2901D11068006C70471068406B5D
:1014F00070471068806B70471068C06B704770470A
:1015000070B5040004D094F83900002510B106E04D
:10151000012070BD84F83850204600F023F82420C4
:1015200084F839002068C16821F40051C160204668
:1015300000F05EFA2068016921F4904101612068A1
:10154000416921F02A0141612068C16841F40051DC
:10155000C160E563202084F8390084F83A00002057
:1015600070BD000030B585B0002400940194029451
:10157000039400681449884224D11448816941F4D5
:1015800080418161816901F480410491816941F068
:101590000401816180690E4D00F0040004904FF455
:1015A00000700090022001900320039069462846B5
:1015B000FFF7F2F82815CDE90004694628460294A1
:1015C000FFF7EAF805B030BD0038014000100240D6
:1015D000000801402DE9F843044690F839001F4601
:1015E00016460D46202850D1A5B19EB194F838007A
:1015F00001284AD0012084F838004FF00008C4F8D0
:101600003C80212084F83900FFF7CCF9A68481467C
:10161000E68426E00120BDE8F883E08C401EE084EB
:10162000A0684B46B0F5805F4FF000024FF080019C
:101630002046009703D000F037FAE8B90DE000F03B
:1016400033FAC8B928882168C0F3080048602069C7
:1016500008B16D1C05E0AD1C03E0216815F8010B15
:101660004860E08C0028D8D14B460022402120461B
:10167000009700F019FA08B10320CCE7202084F885
:10168000390084F838800020C5E70220C3E7FEE770
:101690002DE9F04385B0002437480094019402946A
:1016A0000394816941F010018161816901F01001A9
:1016B0000491816941F004018161816901F00401B3
:1016C0000491816941F020018161816901F020016B
:1016D0000491816941F0080181618069DFF89C9083
:1016E00000F008000490002280214846FFF755F9D9
:1016F000012211024846FFF750F90122DFF88080ED
:10170000150329464046FFF748F94FF4C0700126FB
:101710000227CDE90006CDE9024769464846FFF7B2
:101720003BF803970095CDE9016469464046FFF711
:1017300033F80095134DCDE9015469464846FFF74B
:101740002BF80420CDE90005694602940E48FFF706
:1017500023F8002201210820FFF790F90820FFF765
:101760007FF9002201212820FFF788F92820FFF7C0
:1017700077F905B0BDE8F083001002400010014089
:1017800000080140000011100014014010B586B09F
:10179000002415480594049400940194029411497E
:1017A000039401601F21C0E9011442F21071C0E9E5
:1017B000031444618461FFF724FD049404A90A48DA
:1017C0000594FFF71FFC022000900120CDE90104E1
:1017D000032003900C2269460348FFF785FC06B0FE
:1017E00010BD0000002C014074020020FEE770478D
:1017F00070477047FFF7DCB830B58FB028216846D6
:10180000FEF7C9FC14210AA8FEF7C5FC0225012039
:10181000049000951020059000244FF4C010CDE9ED
:10182000084007956846FFF747FA0F200A90CDE970
:101830000B540D9401210AA80E94FFF751F90FB033
:1018400030BD00000D48016841F0010101604168B0
:101850000B4A1140416001680A4A11400160016869
:1018600021F480210160416821F4FE0141604FF4C0
:101870001F0181600449C0030860704700100240E6
:101880000000FFF8FFFFF6FE08ED00E00148FFF75B
:101890006BBD0000740200200148FFF765BD000029
:1018A00074020020F0B502681C4B1D4D1D4E1E4FEA
:1018B0001E4C4FF0804C984209D0A04207D06045A2
:1018C00005D0A84203D0B04201D0B84204D122F0E2
:1018D000700E4A6842EA0E02984209D0A04207D030
:1018E000604505D0A84203D0B04201D0B84203D130
:1018F00022F44075CA682A434D6922F080022A43C7
:1019000002608A68C2620A688262984201D0A0427C
:1019100001D10969016301214161F0BD002C014041
:101920000004004000080040000C0040003401406A
:1019300010B501F01F030121046A99408C43046231
:10194000016A9A401143016210BD000070B5046A3B
:1019500024F0010404628469056A124EB0420ED07C
:10196000114EB0420BD0B0F1804F08D00F4EB042B4
:1019700005D00F4EB04202D00E4EB04203D124F03B
:101980000304144301E044F001041A0724F0F004B6
:1019900044EA126225F00A0301F00A011943826148
:1019A000016270BD002C0140003401400004004081
:1019B00000080040000C004030B5046A24F0100418
:1019C00004628469056A24F4407444EA022222F421
:1019D00070444FF6FF7202EA03322243A02425F03E
:1019E000A00304EA011119438261016230BD0000C5
:1019F0002DE9F041044600680169E26821F4405194
:101A0000114301612169A0680843616908432168A5
:101A1000CA6841F20C639A430243CA602068416974
:101A2000A26921F44071114341611E492068642577
:101A30003226884202D1FFF7F9F801E0FFF7E6F815
:101A400000EBC00101EB001160686FF01807800027
:101A5000B1FBF0F2B2FBF5F2B1FBF0F37A4303EB2A
:101A60008202B1FBF0F306EB0212B2FBF5F2B3FB1C
:101A7000F5F302F0F00202EB0312B1FBF0F3B1FB5D
:101A8000F0F0B0FBF5F0784303EB800006EB0010BC
:101A9000B0FBF5F0216800F00F0010448860BDE84D
:101AA000F0810000003801402DE9F04198461746CA
:101AB0000E460446069D1DE0681C1BD02DB1FEF7A6
:101AC00071FFA0EB0800A84214D92068C16821F476
:101AD000D071C1602068416921F00101416120207D
:101AE00084F8390084F83A00002084F83800032094
:101AF000BDE8F0812068006836EA000004D00020CC
:101B0000B842D9D00020F3E70120F9E70FB430B58F
:101B1000C1B005466C4646AA2046459900F024F817
:101B200006E02146641C0A2301222846FFF752FDE5
:101B300020780028F5D141B030BC5DF814FBFEE7F9
:101B40000FB4084B10B504A902AA039800F000F9DD
:101B5000044602A9002000F092FC204610BC5DF86B
:101B600014FB00007F24000837B514460846064BD6
:101B70006A46214600F0ECF804466946002000F071
:101B80007EFC20463EBD00007F2400080907090EA8
:101B9000002804DB00F1E02080F80014704700F01A
:101BA0000F0000F1E02080F8141D704702E008C823
:101BB000121F08C1002AFAD170477047002001E0C7
:101BC00001C1121F002AFBD1704700002DE9FF5F01
:101BD00082B00021DDE90430020DDDF840B003439E
:101BE00018D044F61050A2F2FF3242431514119857
:101BF00001281FD0A5EB0B00401C5FEA000A4FF044
:101C000000064E4FDFF83891B046504615D5CAF160
:101C1000000413E0119801244AA3012801D16FEABE
:101C20000B010298119AC0E90031C0E9024206B0E6
:101C3000BDE8F09FCBF10000DFE704460021404AF9
:101C4000491842EB0450CDE9001012E0E00707D03C
:101C500032463B4640464946FEF79DFB8046894654
:101C600032463B4610461946FEF795FB06460F46A0
:101C70006410002CEAD1DDE90401DDE90023BAF1AA
:101C8000000F06DAFEF787FB42464B46FEF783FB62
:101C900005E0FEF7F2FB42464B46FEF7EEFB04463C
:101CA0000E460022284BFEF76FFC03D84FF0FF30A2
:101CB000014607E00022254B20463146FEF7C4FAD4
:101CC000FEF74AFC102409E0002C0ADB0A2200235C
:101CD000FEF789FA039B30321A55641E50EA01025E
:101CE000F2D1641C039AC4F111031444119A012A1D
:101CF00003D0012208430DD10AE0084304D000209C
:101D00004FF0110B119072E7A3EB0B056D1E0DE068
:101D10005B4504DD4FF0000205F1010504E003DA44
:101D20004FF00002A5F10105002AECD002981199AC
:101D3000C0E90231C0E9004579E700000000144025
:101D40000000F03F300000000000F0430000E03FE2
:101D50002DE9FF4F95B09B468946064600250FE2C8
:101D6000252877D100242746F84A0121059400E070
:101D7000044316F8013F203B01FA03F01042F7D16B
:101D800030782A2811D06FF02F033078A0F130027C
:101D9000092A16D8059A44F0020402EB820203EBEA
:101DA00042021044761C0590EFE759F8042B059287
:101DB000002A03DA504244F40054059044F002042F
:101DC000761C30782E2816D116F8010F44F0040442
:101DD0002A280DD06FF02F023078A0F13003092BA4
:101DE00009D807EB870302EB4303C718761CF3E718
:101DF00059F8047B761C30786C280FD006DC4C2810
:101E000017D068280DD06A2814D104E0742810D0A7
:101E10007A280FD10DE044F400140AE044F4801451
:101E200001E044F440147278824202D104F5801437
:101E3000761C761C307866280BD013DC582877D0B7
:101E400009DC002875D04528F6D04628F4D047286C
:101E50001AD19DE118E0632835D0642879D065282F
:101E600012D195E1702873D008DC6728F1D0692879
:101E70006FD06E280DD06F2806D1B5E073282CD016
:101E8000752875D0782874D05A46179990476D1CDC
:101E900075E1C4F30250022809D003280DD0D9F807
:101EA000001004280DD00D6009F1040967E1D9F88C
:101EB0000010EA17C1E90052F6E7D9F800100D80CA
:101EC000F2E70D70F0E719F8041B8DF80010002000
:101ED0008DF80100EA46012003E059F804AB4FF009
:101EE000FF3061074FF0000102D40DE008F101015D
:101EF0008846B9420FDA8045F8DB1AF80810002945
:101F0000F4D108E008F1010188468142FADB1AF8B1
:101F100008100029F6D105985B46A0EB080721467A
:101F20003846179A00F094FA284400EB080507E0B9
:101F30004DE029E10DE01AF8010B5A461799904738
:101F4000B8F10108F7D25B4621463846179A13E1EB
:101F500042E00A220092C4F302524FF0000A022A21
:101F600008D059F804CB032A4FEAEC710AD00DE0EF
:101F700029E02AE009F1070121F00702F2E802C195
:101F8000914609E00FFA8CFC4FEAEC71042A03D168
:101F90004FFA8CFC4FEAEC71002907DA0A4600215F
:101FA000DCF1000C61EB02012D2202E0220504D5D8
:101FB0002B228DF80420012203E0E20701D0202229
:101FC000F7E7904659E00A2102E010220DE01021C7
:101FD0004FF0000A00910BE010224FF0000A44F08D
:101FE00004040827009203E008224FF0000A009240
:101FF000C4F30252022A05D059F804CB0021032A67
:1020000008D009E009F1070121F00702F2E802C156
:10201000914605E01FFA8CFC042A01D10CF0FF0C5C
:102020004FF00008220728D5702806D0009B83F0C7
:10203000100353EA0A0305D00EE040228DF8042075
:10204000012208E05CEA010206D030228DF804206B
:102050008DF8050002229046009B83F0080353EAA6
:102060000A030AD15CEA010201D1620705D53022D8
:102070008DF804204FF001087F1E582804D034A0AA
:1020800003900EA802900DE036A0F9E75346604693
:10209000009AFEF7A8F884460398825C0298401ED6
:1020A000029002705CEA0100F0D1029806A9081AB9
:1020B00000F1200A600702D524F4803400E00127F3
:1020C000574502DDA7EB0A0000E0002000EB0A0103
:1020D000009005984144401A0590E00306D45B4601
:1020E0002146179A059800F0B3F90544002706E049
:1020F00001A85A46C05D179990476D1C7F1C474543
:10210000F6DBE0030CD55B462146179A059800F0F4
:102110009FF9054404E030205A46179990476D1CFA
:102120000099481E00900029F5DC08E00298029909
:102130005A460078491C0291179990476D1CBAF1D4
:102140000001AAF1010AF1DC65E1000009280100A3
:10215000303132333435363738396162636465661D
:1021600000000000303132333435363738394142DF
:10217000434445460000000000F058F90544761C31
:10218000307800287FF4ECAD19B02846BDE8F08F18
:10219000620700D4062709F1070222F0070CFCE8C9
:1021A0000223E14603F000485FEA080C02D00FF278
:1021B000702C0DE05FEA045C02D50FF2682C07E09A
:1021C0005FEAC47C02D00FF2602C01E0AFF2700C29
:1021D0004FF0FF3823F00043CDF850C065280CD0F5
:1021E00006DC452809D046281DD047283DD13DE0D2
:1021F000662818D067287ED138E00021112F01DB36
:10220000112000E0781CCDE9000106A90EA8FFF717
:10221000DDFCDDE90F010E9A03910021009207F128
:10222000010A04914DE04FF000400097CDE9011004
:1022300006A90EA8FFF7CAFCDDE90F0203920E9B68
:1022400011990022DDF80CA00093049211B9791CB9
:1022500000EB010AB7EB0A0004D4C0F1FF3007F12C
:10226000010A0490AAEB0700019044E0012F00DA74
:1022700001270021112F01DD112000E03846CDE9B2
:10228000000106A90EA8FFF7A1FCDDE90F010E9AD7
:102290000391002104910092BA4621070CD40399BE
:1022A000514500DA8A46BAF1010F05DD009AAAF11C
:1022B0000101515C302908D0B84202DA10F1040F54
:1022C00006DA0121CDE9011015E0AAF10101E9E7E3
:1022D000002805DC049901440491AAEB000102E006
:1022E000411C514500DD8A460499401A401C01906A
:1022F0004FF000400290200704D40198504501DBC4
:10230000CDF8048000208DF84F0002980DF14F07A2
:10231000B0F1004F25D02B200E9002984FF002080C
:1023200000280CDA404202902D200E9007E00A218E
:102330000298FDF742FF3031029007F8011DB8F115
:102340000001A8F10108F2DC02980028EFD1791E03
:102350000E980870307800F0200040F0450007F833
:10236000020D12A8C01B00F107081498007800B1F4
:10237000012000EB0A01019801EBE071059841444E
:10238000401A401E0590E00306D45B462146179A8A
:10239000059800F05DF805441498007818B15A4685
:1023A000179990476D1CE00324D55B462146179A88
:1023B000059800F04DF805441CE00498002807DB60
:1023C000DDE90301884203DD0098405C179901E0D4
:1023D000179930205A469047049805F10105401C92
:1023E00004900198401E019004D12E205A4617995E
:1023F00090476D1CBAF10001AAF1010ADDDC05E08D
:1024000017F8010B5A46179990476D1CB8F1000157
:10241000A8F10108F4DC5B462146179A0598ABE663
:102420002D0000002B000000200000002DE9F041ED
:10243000044600251E461746880404D405E03946A4
:102440002020B0476D1C641EF9D52846BDE8F081F8
:102450002DE9F041044600251E469046C80301D5EB
:10246000302700E02027880404D505E0414638469F
:10247000B0476D1C641EF9D52846BDE8F0810A6896
:10248000531C0B60107070472DE9F8430025FEF7D0
:1024900097FAFFF7B1F9FFF7FBF8FFF777F9344840
:1024A00032490C2201604FF4E1314160002181602A
:1024B000C160C0E904128161C161FFF721F8FEF734
:1024C0003DF940F6B830FEF709F92A4C2A4F2B4E59
:1024D0004FF47A7820780028FCD0002280213846FA
:1024E000FEF75BFA3288FA2A32D300F0A3F8DFF85D
:1024F00080800024224F08F140080AE037F81420B9
:1025000008EB05001FA1FFF71BFB2844641C85B2E4
:10251000A4B230888442F1D315484030FDF746FE1E
:10252000134982B24FF4FA7340311148FFF752F861
:1025300000942B46328815A11D48FFF701FB82B29B
:1025400032231B490A48FFF745F80020BDE8F8830D
:1025500018A11748FFF7F4FA82B23223144904484D
:10256000FFF738F84046FEF7B9F8B3E70038014006
:10257000B402002004000020001001400A000020E6
:102580001C00002025642C200000000044617461C0
:102590005F636E7420203A2025640A6F6666736557
:1025A00074203A2025640A69203A2025642C2000F2
:1025B000AC0E0020446174615F636E7420203A2089
:1025C00025642C200000000010B500224FF480711B
:1025D0000E48FEF7E2F9012211030D48FEF7DDF97E
:1025E0000C210C48FEF766FE0B4C01200BA120705D
:1025F0000E48FFF78BFA00206080A080E080BDE8E5
:1026000010404FF416710A48FDF7C5BD0010014097
:10261000000801407402002004000020537461721D
:10262000742041636365707421000000B4020020CF
:102630001C00002010B5012211020B48FEF7ADF975
:1026400000224FF480510948FEF7A7F90C210848F1
:10265000FEF75BFE074900200870BDE8104006A1A8
:102660000948FFF753BA000000100140000801407C
:10267000740200200400002053746F7020416363D3
:102680006570742100000000B4020020000000000A
:102690000000000001020304060708090000000012
:1026A00001020304C4260008000000201C000000F2
:1026B000AC1B0008E02600081C000020941300005A
:1026C000BC1B00080000000000000000000000002B
:1026D0000100000010000000000000000024F400D1
:0400000508000131BD
:00000001FF
